:020000040800F2
:10000000C81A002069010008710100087301000886
:100010007501000877010008790100080000000060
:100020000000000000000000000000007B0100084C
:100030007D010008000000007F0100088101000828
:100040008301000883010008830100088301000880
:100050008301000883010008830100088301000870
:1000600000000000830100088301000883010008EC
:100070002502000883010008830100080000000039
:100080008301000825030008000000008301000828
:100090008301000883010008830100088301000830
:1000A0008301000883010008830100088301000820
:1000B00083010008000000000000000000000000B4
:1000C00083010008000000008301000800F002F82E
:1000D00000F03AF80AA090E8000C82448344AAF1A8
:1000E0000107DA4501D100F02FF8AFF2090EBAE8A6
:1000F0000F0013F0010F18BFFB1A43F0010318475C
:100100007C1800009C180000103A24BF78C878C101
:10011000FAD8520724BF30C830C144BF04680C600D
:10012000704700000023002400250026103A28BF55
:1001300078C1FBD8520728BF30C148BF0B60704759
:100140001FB51FBD10B510BD00F031F81146FFF707
:10015000F7FF00F0B9FF00F04FF803B4FFF7F2FF2C
:1001600003BC00F057F800000948804709480047E1
:10017000FEE7FEE7FEE7FEE7FEE7FEE7FEE7FEE757
:10018000FEE7FEE704480549054A064B70470000B4
:10019000B9020008CD000008C8140020C81A0020C9
:1001A000C8160020C8160020704770477047754673
:1001B00000F02CF8AE4605006946534620F00700D3
:1001C000854618B020B5FFF7DDFFBDE820404FF0B1
:1001D00000064FF000074FF000084FF0000B21F031
:1001E0000701AC46ACE8C009ACE8C009ACE8C009FE
:1001F000ACE8C0098D46704710B50446AFF30080E7
:100200002046BDE81040FFF7A8BF00000048704737
:100210006414002001491820ABBEFEE7260002004E
:100220007047000010B501F06DFB1148007828B947
:10023000104800F08EF91049088004E00D4800F0E5
:1002400088F90E49088008210D4800F01DFE0D496F
:1002500008700D48006820F0100010300A4908604E
:100260000846006820F020002030086010BD000023
:1002700009000020002401400400002006000020A6
:1002800000040048080000200C00002005480088F9
:1002900005490988884202DA024800887047024806
:1002A0000088FBE7040000200600002001480078D9
:1002B00070470000080000201748006820F0010087
:1002C000401C1549086000BF13480068C0F3400097
:1002D0000028F9D01048406820F003000E4948601B
:1002E00000BF0D484068C0F381000028F9D10A49D9
:1002F000486041F61070C862084600680749084027
:10030000054908604FF4801008634FF41F008860AF
:10031000C80303490860704700100240FFFFF2FE67
:1003200008ED00E010B50D480078401C0B4908703E
:1003300008460078082804DB00F0D6FF00200749B3
:10034000087001F005FB0121054801F0D9FA0448C5
:10035000006920F001000249086110BD6200002020
:10036000001000400B78426863F3082242604B782B
:10037000826863F3410282608B78826863F3CB22E8
:100380008260CA78521EC36A62F31753C362704711
:1003900000210170417081700121C1707047826835
:1003A00061F3000282607047012A03D143680B4366
:1003B000436003E012B943688B434360704710B554
:1003C000122964D2DFE801F0090E13181D22272C30
:1003D00031363B40454A4F54595E046963F3020489
:1003E000046155E0046963F3C504046150E00469E5
:1003F00063F3881404614BE0046963F34B240461E4
:1004000046E0046963F30E34046141E0046963F378
:10041000D13404613CE0046963F39444046137E03F
:10042000046963F35754046132E0046963F31A64A6
:1004300004612DE0046963F3DD64046128E0C468AD
:1004400063F30204C46023E0C46863F3C504C460BA
:100450001EE0C46863F38814C46019E0C46863F3E1
:100460004B24C46014E0C46863F30E34C4600FE02E
:10047000C46863F3D134C4600AE0C46863F394448D
:10048000C46005E0C46863F35754C46000E000BF73
:1004900000BF112A5AD2DFE802F059090E13181DC5
:1004A00022272C31363B40454A4F5400446B61F3C0
:1004B000040444634BE0446B61F34914446346E035
:1004C000446B61F38E24446341E0446B61F3D334A5
:1004D00044633CE0446B61F31854446337E0446B7D
:1004E00061F35D64446332E0046B61F3040404630C
:1004F0002DE0046B61F34914046328E0046B61F39D
:100500008E24046323E0046B61F3D33404631EE0A0
:10051000046B61F31854046319E0046B61F35D64C8
:10052000046314E0C46A61F30404C4620FE0C46AA3
:1005300061F34914C4620AE0C46A61F38E24C462A0
:1005400005E0C46A61F3D334C46200E000BF00BFB9
:1005500010BD0146C86C80B2704707290ADD836868
:1005600023F0007303F100738360836861F35343E6
:10057000836007E0836823F000738360836861F31E
:1005800053438360836862F31453836070470000B1
:1005900010B51B4800681B49884219D91A480088C1
:1005A000C0F30030A0B118480078C0F3400078B123
:1005B00015480088C0F3002050B100F057FF00201C
:1005C0000F4908601048006820F080000E4908605C
:1005D0000B4800680B49884210D90B480088C0F3CB
:1005E000802058B10848006820F08000803006491B
:1005F000086000F065F801200449087010BD000093
:1006000010000020007512000C0000203D000020AA
:1006100000B505480068C0F3806010B100F024F810
:1006200001E000F003F800BD0C00002000B50B480D
:100630000078002804DD09480078401E074908704A
:100640007820074908600748006820F0806000F1C2
:1006500080600449086001F0EBF800BD3D00002017
:10066000380000200C00002000B50A48007800285F
:1006700004DD08480078401E064908701E2006491F
:1006800008600648006820F080600449086001F0B6
:10069000CFF800BD3C000020380000200C000020F6
:1006A0000648006820F00100044908600846006818
:1006B00020F00200801C0860704700000C00002041
:1006C00010B51A480088C0F3003060B91748008898
:1006D000C0F3802038B91548006820F4806000F528
:1006E00080601249086011480088C0F38020D8B1AA
:1006F0000E480078C0F3C010B0B10C480088C0F3B9
:10070000402088B909480088C0F3C02060B94AF683
:10071000AA20074948804FF48062064800F020F97B
:100720000549087000F0EEFA10BD00000C00002032
:1007300064000020003000083F00002003494968A1
:1007400060F30711014A5160704700000010024039
:10075000052827D2DFE800F0030A11181F00134A0A
:10076000126861F30002114B1A601CE00F4A126814
:1007700061F310420D4B1A6015E00C4A126861F3E8
:1007800018620A4B1A600EE0084A126A61F300020E
:10079000064B1A6207E0054A526A61F30002034BF6
:1007A0005A6200E000BF00BF704700000010024026
:1007B0000349096B60F35961014A116370470000F6
:1007C0000010024000B503460120FFF7F1FF034887
:1007D000406D63F349200149486500BD00100240A7
:1007E00010B501290DD10E4B03EB1042126800F039
:1007F0001F040123A3401A43094C04EB10431A6061
:100800000CE0074B03EB1042126800F01F040123B9
:10081000A3409A43024C04EB10431A6010BD000041
:10082000001002400149C8607047000000200240EB
:1008300070B504460D4603264FF4801000F03EF8D4
:100840000646032E12D10A48006920F00100401C20
:100850000749086125804FF4801000F02FF8064604
:100860000348006920F0010001490861304670BD6D
:10087000002002400348006920F0800080300149D8
:10088000086170470020024003200B49C96801F04D
:10089000010109B100200EE00749C968C1F38001D8
:1008A00009B1012007E00449C968C1F3001109B189
:1008B000022000E0032070470020024000B50246FD
:1008C0000323FFF7E1FF034603E0FFF7DDFF0346E5
:1008D000521E0BB9002AF8D102B90423184600BDF4
:1008E00010B50B46002105E0048823F81140801C58
:1008F0004C1CA1B29142F7DB10BD000030B504469C
:1009000003254FF08040FFF7D9FF0546032D17D18F
:100910000C48006920F00200801C0A490861084662
:100920004461006920F04000403008614804FFF74E
:10093000C5FF05460348006920F00200014908612F
:10094000284630BD00200240024803494860034861
:10095000486070472301674500200240AB89EFCD16
:100960002DE9F84F81468A4616464FF00308FFF7F7
:10097000EBFFA9F1006000900098870A0098C0F38F
:10098000480BCBF50074A64200DC344670E04FF013
:10099000006101EB87208A143849FFF7A1FF002589
:1009A0000BE00BEB0500354931F810004FF6FF71F5
:1009B000884200D003E0681C85B2A542F1DB00BF8D
:1009C000A54239DA4FF08040FFF778FF8046B8F152
:1009D000010F02D0B8F1020F03D11420FFF722FF5C
:1009E00005E0B8F1040F02D10020BDE8F88F4FF008
:1009F000006101EB8720FFF781FF8046B8F1030F0C
:100A000001D00020F1E7002508E03AF8150005EBD9
:100A10000B011A4A22F81100681C85B2A542F4DBCA
:100A20004FF0006101EB87208A14144900F028F888
:100A300001280AD00020D8E722465146484600F057
:100A40001FF8012801D00020CFE7A64200D110E016
:100A50007F1C4FF0000B0AEB440A09EB4409301BE2
:100A600086B2B6F5007F02DD4FF4007400E0344634
:100A70008DE700BFFFF7FEFE0120B6E764100020FF
:100A80002DE9F04105460E4617464FF003080024B5
:100A90000EE036F814102846FFF7CAFE8046B8F17B
:100AA000030F02D00020BDE8F081AD1C601C84B2B1
:100AB000BC42EEDB0120F6E710B535480088C0F3F4
:100AC000002088B332480078C0F3C00060B33048DB
:100AD0000078C0F3800038BB2D480078C0F3400098
:100AE00010B32B480068C0F3C040E8B12848008824
:100AF000C0F34020C0B926480088C0F3C02098B990
:100B000023480088C0F3003048B921480088C0F36A
:100B1000802048B91E480088C0F3003020B9012069
:100B20001C49087000F0A2FC19480078C0F3C010FE
:100B300060B317480078C0F3800038B314480068E9
:100B4000C0F3C04010B312480078C0F3C000E8B949
:100B50000F480088C0F3802048B90D480088C0F3D2
:100B6000802098B90A480088C0F3003070B908485E
:100B70000088C0F3402048B905480088C0F3C02071
:100B800020B9022003490870FFF79AFD10BD00004C
:100B90000C0000203C00002000B52F480078C0F376
:100BA0004010002856D0FFF781FB30B12B48007869
:100BB000401E40B22949087005E028480078401CD2
:100BC00040B226490870254890F9000003281ADD34
:100BD0000320224908702048006820F008001E49C0
:100BE00008600846006820F00400001D0860084600
:100BF000006820F08000803008600846006820F41B
:100C00008070086020E0154890F9000010F1030F93
:100C10001ADAFD20114908700F48006820F008001A
:100C200008300D4908600846006820F0040008609C
:100C30000846006820F0800008600846006820F43C
:100C4000807000F5807008600348006820F0200084
:100C50000149086000BD00000C0000206100002078
:100C600010B524480078C0F30010002841D040F6A9
:100C7000AE002149088040F6C41020490880FFF7E3
:100C800005FB04464FF400614FF0904000F0B6F8C9
:100C900019480088844206DA19480078401C40B29E
:100CA0001749087009E015480088844205DD14489A
:100CB0000078401E40B212490870114890F90000B7
:100CC000042804DD00F040FD04200D4908700C48A4
:100CD00090F9000010F1040F04DAFFF7E1FCFC20AA
:100CE000074908700348006820F0100001490860B7
:100CF00000BF10BD0C0000200000002002000020FA
:100D0000600000201C480088C0F3C02098BB1A482F
:100D10000088C0F3003070BB17480068C0F3C040C3
:100D200048B31548006820F4006000F500601249DF
:100D300008600846006820F4806008600846006883
:100D400020F4007008600846006820F40050086035
:100D50000846006820F4804000F5804008603E208E
:100D6000064908603C2006490860012005490860E2
:100D700000200549086070470C0000201800002082
:100D8000140000201C0000201000002019480088DA
:100D9000C0F3802058BB17480088C0F3402030BB08
:100DA00014480068C0F3C04008B31248006820F43B
:100DB000007000F500700F4908600846006820F4D4
:100DC000805008600846006820F40060086008460B
:100DD000006820F4804008600846006820F4005055
:100DE00000F5005008603C2003490860704700BFD0
:100DF000FCE700000C000020140000208162704716
:100E0000816170470AB1816100E08162704770B50D
:100E10000A4600211488A3B233E003F001046CB346
:100E200004684E000325B540AC43046094794D003E
:100E3000AC4005682C430460446801258D40AC43F8
:100E40004460446815798D402C43446084684E00AA
:100E50000325B540AC438460D4794D00AC4085682F
:100E60002C438460C4684E000325B540AC43C46085
:100E700054794D00AC40C5682C43C4605B104C1CD9
:100E8000A1B2002BC9DC70BD0246002013690B40E3
:100E90008B4200D000E0012070472DE9FC47074657
:100EA0000C4615461E46DDE90A89EA468DF80750CC
:100EB0008DF806608DF8048000948DF805905146F9
:100EC0003846FFF7A4FFBDE8FC8700001CB50120F1
:100ED00000F032FD012000F01DFD002000F02CFD8F
:100EE00000F022FD00F00EFD0020FFF76BFC012159
:100EF0000020FFF72DFC0120FFF75AFC0020FFF730
:100F00001DFC01214848FFF76BFC01214648401CAD
:100F1000FFF766FC01214548FFF762FC01214448C8
:100F2000FFF75EFC00200090012302225103019094
:100F30004FF09040FFF7B1FF002000900123022204
:100F4000082101904FF09040FFF7A7FF002000908C
:100F500001230222194601903648FFF79EFF002028
:100F6000009001230222114601903248FFF795FFBD
:100F70000020009003460222082101902D48FFF72F
:100F80008CFF0120002103460246CDE90010C1027A
:100F90004FF09040FFF781FF002001210323022240
:100FA000CDE900104FF09040FFF777FF00200121BE
:100FB00003230222CDE9001011464FF09040FFF7C5
:100FC0006CFF00200090012302222021019019488B
:100FD000FFF763FF002000900123022210210190FF
:100FE0001448FFF75AFF00F051FC262225210C205F
:100FF00000F0D8F92046FFF7CBF921460E48FFF75D
:10100000B1F901210C48FFF7CAF9012220210A4851
:10101000FFF7CAF901200949087007230122114688
:101020000548FFF7CCF91CBD110014000900180099
:1010300004001C00000400480024014009000020B6
:1010400010B51F48007800F0010220211D48FFF76D
:10105000D9FE1B480088C0F3402020B918480088FA
:10106000C0F3802008B1012000E0002002461021DA
:101070001448FFF7C7FE12480088C0F380320221EF
:101080001048FFF7BFFE0E480088C0F34032012130
:101090000C48FFF7B7FE0A480068C0F380520821E9
:1010A0004FF09040FFF7AEFE05480068C0F30040E7
:1010B00028B14FF480414FF09040FFF79FFE10BDE4
:1010C0000C0000200004004800F06CFB4FF480622C
:1010D00025492648FFF704FC2548006820F4002035
:1010E00000F500202249086012E02148006820F045
:1010F000200020301E490860FFF74EFD1C480068A4
:10110000800DC1431A48006861F396501849086081
:10111000184800781428E8D3134840884AF6AA21D2
:10112000884202D1FFF7EEFD07E00F4840884BF6FA
:10113000BB31884201D1FFF729FE13E000F0E2FB4A
:10114000FFF77EFF0A48007800F0010040B9FFF782
:1011500023FDFFF7B1FCFFF783FDFFF719FA01E06C
:10116000FFF7AEFAEAE7000064080020003000084C
:101170000C000020400000200C480078002805DD0D
:101180000A480078401E094908700DE007480078B9
:1011900050B90748006820F4003000F500300449D9
:1011A00008601E20014908707047000029000020D7
:1011B0000C00002010B527480078142804D22548D8
:1011C0000078401C234908702348007800F0010093
:1011D00000283DD121480078401C2049087008466D
:1011E0000078042818DD002008701D4800780128C8
:1011F00009D10723012200211A48FFF7E0F8002057
:101200001749087008E00723012211461548FFF727
:10121000D6F80120124908701348007880B94FF4BD
:1012200000614FF09040FFF7EBFD0B48006820F0A5
:10123000400040300849086001200B49087007E071
:10124000012207210748FFF788F9002006490870A6
:1012500010BD0000400000200C00002042000020D3
:1012600009000020002401404300002000B51B4875
:10127000006820F40000194908600846007800F072
:10128000010070B108460068C0F3404010B1FFF79C
:10129000BFF922E01248007800281EDDFFF7E4F9CC
:1012A0001BE00E480078C0F34000B0B10C48007855
:1012B000002806DD0B480078002802DDFFF7A8F9BA
:1012C0000BE007480078002801DDFFF7CDF905485D
:1012D0000078002801DDFFF7A9F900BD0C0000200F
:1012E0003C0000203D00002010B52948006828B1CE
:1012F00027480068401E2649086001E000F0B0FA67
:101300002448D0E90020244B0ACB511A98410AD333
:101310002048D0E90010643140F100001E4AC2E9C3
:101320000010FFF747FF1B48D0E900101B4AD2E925
:101330000032C91A90410AD31648D0E90020C832B9
:1013400040F100001549C1E90020FFF78FFF114867
:10135000D0E90010124AD2E90032C91A90410CD3E8
:101360000C48D0E900304FF47A71591840F1000070
:101370000B4AC2E9001000F063F90648D0E90020EA
:10138000521C40F100000349C1E9002010BD0000DB
:1013900038000020300000205000002048000020CD
:1013A000580000202DE9F0470B4614464FF0000C82
:1013B00000BF2C4A1268C2F302211D4626460A4687
:1013C000C2F10709B9F1040F02D94FF0040901E095
:1013D000C2F10709C84602F10409B9F1070F02D2A8
:1013E0004FF0000901E0A2F103094F464FF0010957
:1013F00009FA08F9A9F1010909EA050909FA07F941
:101400004FF0010A0AFA07FAAAF1010A0AEA060AE3
:1014100049EA0A09CC4601466246002904DB150761
:101420002E0E114D6E5407E015072F0E0D4D0C3585
:1014300001F00F06361FAF5500BF014600290DDB36
:1014400000BF00BF01F01F050122AA404D09AD00F9
:1014500005F1E025C5F8002100BF00BF00BFBDE8D1
:10146000F08700000CED00E000E400E010B5154846
:101470000088C0F3003060B912480088C0F38020B3
:1014800038B91048006820F4805000F580500D49AC
:1014900008600C480088C0F3003088B10948008813
:1014A000C0F3002060B14BF6BB30074948804FF4D1
:1014B00080620648FFF754FA05490870FFF766FC9A
:1014C00010BD00000C000020640000200030000867
:1014D0003F00002010B546480088C0F3402028B1E6
:1014E00043480088C0F3C02000B110BD40480088C8
:1014F000C0F3402060B33F48006848B33D480068EF
:10150000401E3C4908600846006808BB384800682F
:1015100020F40050364908600846006820F48060D6
:1015200000F5806008600846006820F400700860DC
:101530000846006820F0807008604FF6FF702E4962
:1015400048804FF480622D48FFF70AFA2C49087052
:1015500027480088C0F3C020002847D029480068E9
:10156000B8B92448006868B12148006820F40050E8
:1015700000F500501E4908601E480068401E1D49C5
:1015800008600BE01A48006820F400501849086011
:1015900004E01C480068401E1A4908601A480068A8
:1015A00020B319480068401E1749086008460068C3
:1015B000E0B90F48006820F480400D4908600846F3
:1015C000006820F4805000F58050086008460068EC
:1015D00020F4006008604FF6FF70074948804FF420
:1015E00080620648FFF7BCF90549087000BF7CE738
:1015F0000C000020140000206400002000300008CF
:101600003F0000201C000020180000200A4800684D
:10161000C0F3406070B108480068C0F3404030B18A
:101620000548006820F400300349086002E0032008
:1016300002490870704700000C0000203C000020A8
:1016400010B53C48006820F4000000F5000039495E
:10165000086039480078401C3749087035480068F0
:10166000C0F3C04088B935480078002805DD33480C
:101670000078401E3149087007E02E48006820F4C9
:10168000002000F500202B4908602A480088C0F39C
:10169000003020B92A480068401C29490860FFF73B
:1016A00019FF2448007800F0010048B9214800885B
:1016B000C0F3C02020B91F480088C0F3402050B1BB
:1016C0001C480068800DC1431A48006861F39650B9
:1016D0001849086015E01B480078401C194908703B
:1016E0000846007802280CDD12480068800DC143CE
:1016F0001048006861F396500E49086000201149B7
:1017000008700C48007800F0010090B10A48007899
:101710001E2803D0084800783C2801D1FFF776FF47
:10172000054800783C2804D1FFF726FD0020024937
:10173000087010BD0C000020280000202A000020A6
:1017400010000020410000201448006820F08000B4
:101750008030124908600846006820F480700860F4
:101760000846006820F00100401C08600846006838
:1017700020F0020008600846006820F0007000F1C8
:10178000007008600846006820F4003000F5003062
:101790000860002002490870704700000C0000201B
:1017A0002800002010B5FFF791FB002018490860C1
:1017B00001211848FFF722FB02211648FFF71EFB04
:1017C00020211448FFF71AFB10211248FFF716FBDF
:1017D0004FF400614FF09040FFF710FB4FF4804151
:1017E0004FF09040FFF70AFB08214FF09040FFF7C1
:1017F00005FB00200849086008490860084908609E
:1018000008490860084908600849087010BD0000D0
:101810000C000020000400481000002014000020EC
:10182000180000201C0000203800002029000020A3
:101830000A48006820F4802000F5802007490860ED
:101840000846006820F4004000F5004008600846A3
:10185000006820F480300860704700000C00002011
:101860000948006820F4802007490860084600689D
:1018700020F4004008600846006820F4803000F53D
:1018800080300860704700000C00002010B5242252
:1018900023211120FFF786FD0F48C06820F00100CA
:1018A000401C0D49C8600846006820F00800086028
:1018B0000846006820F0020008600121064800F098
:1018C00015F84FF4FA720121034800F007F80121DE
:1018D000014800F010F810BD00100040C1628262A3
:1018E000436923F001035B1C43617047426861F365
:1018F000000242607047026861F3000202607047B4
:10190000C16270474AF6AA2001490860704700008A
:10191000003000400349496860F30201014A516008
:1019200070470000003000404CF6CC400149086090
:10193000704700000030004018B90021034A1160D0
:1019400003E045F25551014A1160704700300040F4
:1019500010B509480088C0F3C03060B14FF0904026
:101960004069C0F3803080F001024FF480414FF0B5
:101970009040FFF747FA10BD0C0000209C190008AA
:10198000000000206400000008010008001A0008A0
:1019900064000020641A0000240100080000000018
:1019A0000000000000000000000000000000000037
:1019B0000000000000000000000000000000000027
:1019C0000000000000000000000000000000000017
:1019D0000000000000000000000000000000000007
:1019E00000000000000000000000000000000000F7
:1019F00000000000000000000000000000000000E7
:04000005080000CD22
:00000001FF
