:020000040800F2
:10000000C80600206901000871010008730100089A
:100010007501000877010008790100080000000060
:100020000000000000000000000000007B0100084C
:100030007D010008000000007F0100088101000828
:100040008301000883010008830100088301000880
:100050008301000883010008830100088301000870
:1000600000000000830100088301000883010008EC
:100070002502000883010008830100080000000039
:100080008301000825030008000000008301000828
:100090008301000883010008830100088301000830
:1000A0008301000883010008830100088301000820
:1000B00083010008000000000000000000000000B4
:1000C00083010008000000008301000800F002F82E
:1000D00000F03AF80AA090E8000C82448344AAF1A8
:1000E0000107DA4501D100F02FF8AFF2090EBAE8A6
:1000F0000F0013F0010F18BFFB1A43F0010318475C
:10010000A0140000C0140000103A24BF78C878C1C1
:10011000FAD8520724BF30C830C144BF04680C600D
:10012000704700000023002400250026103A28BF55
:1001300078C1FBD8520728BF30C148BF0B60704759
:100140001FB51FBD10B510BD00F031F81146FFF707
:10015000F7FF00F051FE00F04FF803B4FFF7F2FF95
:1001600003BC00F057F800000948804709480047E1
:10017000FEE7FEE7FEE7FEE7FEE7FEE7FEE7FEE757
:10018000FEE7FEE704480549054A064B70470000B4
:10019000B9020008CD000008C8000020C8060020F1
:1001A000C8020020C802002070477047704775469B
:1001B00000F02CF8AE4605006946534620F00700D3
:1001C000854618B020B5FFF7DDFFBDE820404FF0B1
:1001D00000064FF000074FF000084FF0000B21F031
:1001E0000701AC46ACE8C009ACE8C009ACE8C009FE
:1001F000ACE8C0098D46704710B50446AFF30080E7
:100200002046BDE81040FFF7A8BF00000048704737
:100210006400002001491820ABBEFEE72600020062
:100220007047000010B501F08BF91148007828B92B
:10023000104800F08EF91049088004E00D4800F0E5
:1002400088F90E49088008210D4800F0BFFC0D49CF
:1002500008700D48006820F0100010300A4908604E
:100260000846006820F020002030086010BD000023
:1002700009000020002401400400002006000020A6
:1002800000040048080000200C00002005480088F9
:1002900005490988884202DA024800887047024806
:1002A0000088FBE7040000200600002001480078D9
:1002B00070470000080000201748006820F0010087
:1002C000401C1549086000BF13480068C0F3400097
:1002D0000028F9D01048406820F003000E4948601B
:1002E00000BF0D484068C0F381000028F9D10A49D9
:1002F000486041F61070C862084600680749084027
:10030000054908604FF4801008634FF41F008860AF
:10031000C80303490860704700100240FFFFF2FE67
:1003200008ED00E010B50D480078401C0B4908703E
:1003300008460078082804DB00F024FE0020074966
:10034000087001F005F90121054801F0F7F80448AB
:10035000006920F001000249086110BD6200002020
:10036000001000400B78426863F3082242604B782B
:10037000826863F3410282608B78826863F3CB22E8
:100380008260CA78521EC36A62F31753C362704711
:1003900000210170417081700121C1707047826835
:1003A00061F3000282607047012A03D143680B4366
:1003B000436003E012B943688B434360704710B554
:1003C000122964D2DFE801F0090E13181D22272C30
:1003D00031363B40454A4F54595E046963F3020489
:1003E000046155E0046963F3C504046150E00469E5
:1003F00063F3881404614BE0046963F34B240461E4
:1004000046E0046963F30E34046141E0046963F378
:10041000D13404613CE0046963F39444046137E03F
:10042000046963F35754046132E0046963F31A64A6
:1004300004612DE0046963F3DD64046128E0C468AD
:1004400063F30204C46023E0C46863F3C504C460BA
:100450001EE0C46863F38814C46019E0C46863F3E1
:100460004B24C46014E0C46863F30E34C4600FE02E
:10047000C46863F3D134C4600AE0C46863F394448D
:10048000C46005E0C46863F35754C46000E000BF73
:1004900000BF112A5AD2DFE802F059090E13181DC5
:1004A00022272C31363B40454A4F5400446B61F3C0
:1004B000040444634BE0446B61F34914446346E035
:1004C000446B61F38E24446341E0446B61F3D334A5
:1004D00044633CE0446B61F31854446337E0446B7D
:1004E00061F35D64446332E0046B61F3040404630C
:1004F0002DE0046B61F34914046328E0046B61F39D
:100500008E24046323E0046B61F3D33404631EE0A0
:10051000046B61F31854046319E0046B61F35D64C8
:10052000046314E0C46A61F30404C4620FE0C46AA3
:1005300061F34914C4620AE0C46A61F38E24C462A0
:1005400005E0C46A61F3D334C46200E000BF00BFB9
:1005500010BD0146C86C80B2704707290ADD836868
:1005600023F0007303F100738360836861F35343E6
:10057000836007E0836823F000738360836861F31E
:1005800053438360836862F31453836070470000B1
:1005900000B51B480068B0F5967F19D91948008846
:1005A000C0F30030A0B117480078C0F3400078B124
:1005B00014480088C0F3002050B100F0A5FD0020D1
:1005C0000F4908600F48006820F080000D4908605E
:1005D0000B480068B0F5967F10D90A480088C0F330
:1005E000802058B10748006820F08000803005491D
:1005F000086000F063F801200349087000BD0000A6
:10060000100000200C0000203D00002000B505482F
:100610000068C0F3806010B100F024F801E000F041
:1006200003F800BD0C00002000B50B48007800283E
:1006300004DD09480078401E074908707820074902
:1006400008600748006820F0806000F1806004497D
:10065000086000F00BFF00BD3D00002038000020C6
:100660000C00002000B50A480078002804DD084886
:100670000078401E064908701E200649086006489A
:10068000006820F080600449086000F0EFFE00BDC3
:100690003C000020380000200C00002006480068C4
:1006A00020F00100044908600846006820F00200BC
:1006B000801C0860704700000C00002000B5144842
:1006C0000088C0F3003060B911480088C0F3802072
:1006D00038B90F48006820F4806000F580600C494C
:1006E00008600B480088C0F3802080B1084800787B
:1006F000C0F3C01058B106480088C0F3402030B99C
:1007000003480088C0F3C02008B900F09DF900BD7F
:100710000C0000200349496860F30711014A516049
:100720007047000000100240052827D2DFE800F0E3
:10073000030A11181F00134A126861F30002114BDB
:100740001A601CE00F4A126861F310420D4B1A60E8
:1007500015E00C4A126861F318620A4B1A600EE049
:10076000084A126A61F30002064B1A6207E0054A62
:10077000526A61F30002034B5A6200E000BF00BFFF
:1007800070470000001002400349096B60F3596193
:10079000014A1163704700000010024000B5034693
:1007A0000120FFF7F1FF0348406D63F34920014941
:1007B000486500BD0010024010B501290DD10E4B57
:1007C00003EB1042126800F01F040123A3401A43F8
:1007D000094C04EB10431A600CE0074B03EB10428A
:1007E000126800F01F040123A3409A43024C04EB5B
:1007F00010431A6010BD00000010024000B53548DB
:100800000088C0F3002088B332480078C0F3C000ED
:1008100060B330480078C0F3800038BB2D480078C2
:10082000C0F3400010B32B480068C0F3C040E8B1EB
:1008300028480088C0F34020C0B926480088C0F38B
:10084000C02098B923480088C0F3003048B9214837
:100850000088C0F3802048B91E480088C0F30030EB
:1008600020B901201C49087000F04EFC194800789E
:10087000C0F3C01060B317480078C0F3800038B3ED
:1008800014480068C0F3C04010B312480078C0F3A9
:10089000C000E8B90F480088C0F3802048B90D486F
:1008A0000088C0F3802098B90A480088C0F300305F
:1008B00070B908480088C0F3402048B9054800884E
:1008C000C0F3C02020B9022003490870FFF7F6FEEC
:1008D00000BD00000C0000203C00002000B52F48A7
:1008E0000078C0F34010002856D0FFF7DFFC30B18D
:1008F0002B480078401E40B22949087005E028487E
:100900000078401C40B226490870254890F9000044
:1009100003281ADD0320224908702048006820F0CF
:1009200008001E4908600846006820F00400001D09
:1009300008600846006820F08000803008600846A3
:10094000006820F48070086020E0154890F90000ED
:1009500010F1030F1ADAFD20114908700F480068E2
:1009600020F0080008300D4908600846006820F0B3
:10097000040008600846006820F08000086008460F
:10098000006820F4807000F58070086003480068FB
:1009900020F020000149086000BD00000C0000208C
:1009A0006100002010B524480078C0F30010002832
:1009B00041D040F6AE002149088040F6C4102049DD
:1009C0000880FFF763FC04464FF400614FF090404D
:1009D00000F0B6F819480088844206DA1948007811
:1009E000401C40B21749087009E01548008884424D
:1009F00005DD14480078401E40B2124908701148C5
:100A000090F90000042804DD00F0BCFC04200D492E
:100A100008700C4890F9000010F1040F04DAFFF799
:100A20003DFEFC20074908700348006820F01000D4
:100A30000149086000BF10BD0C000020000000202C
:100A400002000020600000201C480088C0F3C02085
:100A500098BB1A480088C0F3003070BB1748006884
:100A6000C0F3C04048B31548006820F4006000F5AA
:100A70000060124908600846006820F48060086041
:100A80000846006820F4007008600846006820F4FA
:100A9000005008600846006820F4804000F580405F
:100AA00008603E20064908603C2006490860012095
:100AB0000549086000200549086070470C000020C7
:100AC00018000020140000201C000020100000204E
:100AD00019480088C0F3802058BB17480088C0F32D
:100AE000402030BB14480068C0F3C04008B312482F
:100AF000006820F4007000F500700F490860084697
:100B0000006820F4805008600846006820F4006007
:100B100008600846006820F48040086008460068C5
:100B200020F4005000F5005008603C2003490860A4
:100B3000704700BFFCE700000C00002014000020FC
:100B400081627047816170470AB1816100E0816212
:100B5000704770B50A4600211488A3B233E003F051
:100B600001046CB304684E000325B540AC43046037
:100B700094794D00AC4005682C430460446801251D
:100B80008D40AC434460446815798D402C434460EB
:100B900084684E000325B540AC438460D4794D0091
:100BA000AC4085682C438460C4684E000325B54082
:100BB000AC43C46054794D00AC40C5682C43C4605C
:100BC0005B104C1CA1B2002BC9DC70BD024600209A
:100BD00013690B408B4200D000E0012070472DE9E3
:100BE000FC4707460C4615461E46DDE90A89EA46DB
:100BF0008DF807508DF806608DF8048000948DF80C
:100C0000059051463846FFF7A4FFBDE8FC87000079
:100C10001CB50020FFF7C2FD01210020FFF784FD75
:100C20000120FFF7B1FD0020FFF774FD01214948C5
:100C3000FFF7C2FD01214748401CFFF7BDFD012120
:100C40004548FFF7B9FD01214448FFF7B5FD0020F5
:100C5000009001230222510301904FF09040FFF7D2
:100C6000BEFF0020009001230222114601903C4863
:100C7000FFF7B5FF0020009001230222042101901C
:100C80004FF09040FFF7ABFF0020009001230222BD
:100C9000082101904FF09040FFF7A1FF0020009045
:100CA00003460222082101902D48FFF798FF0120FA
:100CB000002103460246CDE90010C1024FF09040EA
:100CC000FFF78DFF0020012103230222CDE9001050
:100CD0004FF09040FFF783FF002001210323022201
:100CE000CDE9001011464FF09040FFF778FF00204B
:100CF000009001230222202101901948FFF76FFF85
:100D00000020009001230222102101901448FFF7D7
:100D100066FF00F0D9FB262225210C2000F090F977
:100D20002046FFF735FB21460E48FFF71BFB01214C
:100D30000C48FFF734FB012220210A48FFF734FB5F
:100D40000120094908700723012211460548FFF7D1
:100D500036FB1CBD110014000900180004001C0023
:100D600000040048002401400900002010B520487C
:100D7000007800F0010220211E48FFF7E5FE1C4824
:100D80000088C0F3402020B919480088C0F38020B3
:100D900008B1012000E00020024610211548FFF7AD
:100DA000D3FE13480088C0F3803208214FF09040F2
:100DB000FFF7CAFE0E480088C0F3403204214FF00E
:100DC0009040FFF7C1FE0A480068C0F3805202213C
:100DD0000848FFF7B9FE06480068C0F3004028B194
:100DE0004FF480414FF09040FFF7AAFE10BD000085
:100DF0000C0000200004004800F0F2FA13E000F0BC
:100E00009FFBFFF7B3FF0848007800F0010040B9EE
:100E1000FFF764FDFFF7F2FCFFF7C4FDFFF7B8FB37
:100E200001E0FFF74BFCEAE70C0000200C480078DB
:100E3000002805DD0A480078401E094908700DE0C9
:100E40000748007850B90748006820F4003000F5E2
:100E50000030044908601E200149087070470000F6
:100E6000290000200C00002010B52248007800F076
:100E7000010000283DD120480078401C1E49087020
:100E800008460078042818DD002008701B48007808
:100E9000012809D10723012200211948FFF78FFA01
:100EA00000201649087008E0072301221146144863
:100EB000FFF785FA0120114908701248007880B9BF
:100EC0004FF400614FF09040FFF73CFE0948006886
:100ED00020F04000403007490860012009490870AF
:100EE00007E0012207210648FFF737FB00200549EC
:100EF000087010BD0C0000204000002009000020F8
:100F0000002401404100002000B51B48006820F487
:100F10000000194908600846007800F0010070B12F
:100F200008460068C0F3404010B1FFF76FFB22E0B5
:100F30001248007800281EDDFFF794FB1BE00E48E6
:100F40000078C0F34000B0B10C480078002806DDFE
:100F50000B480078002802DDFFF758FB0BE007483C
:100F60000078002801DDFFF77DFB054800780028A8
:100F700001DDFFF759FB00BD0C0000203C00002004
:100F80003D00002010B52948006828B127480068B6
:100F9000401E2649086001E000F080FA2448D0E9AC
:100FA0000020244B0ACB511A98410AD32048D0E99B
:100FB0000010643140F100001E4AC2E90010FFF742
:100FC00053FF1B48D0E900101B4AD2E90032C91A6E
:100FD00090410AD31648D0E90020C83240F1000001
:100FE0001549C1E90020FFF78FFF1148D0E9001033
:100FF000124AD2E90032C91A90410CD30C48D0E908
:1010000000304FF47A71591840F100000B4AC2E9E0
:10101000001000F033F90648D0E90020521C40F1DE
:1010200000000349C1E9002010BD00003800002085
:101030003000002050000020480000205800002010
:101040002DE9F0470B4614464FF0000C00BF2C4A28
:101050001268C2F302211D4626460A46C2F107095C
:10106000B9F1040F02D94FF0040901E0C2F10709F8
:10107000C84602F10409B9F1070F02D24FF0000986
:1010800001E0A2F103094F464FF0010909FA08F9FE
:10109000A9F1010909EA050909FA07F94FF0010A5E
:1010A0000AFA07FAAAF1010A0AEA060A49EA0A094B
:1010B000CC4601466246002904DB15072E0E114D71
:1010C0006E5407E015072F0E0D4D0C3501F00F067D
:1010D000361FAF5500BF014600290DDB00BF00BF22
:1010E00001F01F050122AA404D09AD0005F1E025E0
:1010F000C5F8002100BF00BF00BFBDE8F0870000B9
:101100000CED00E000E400E000B50F480088C0F3FB
:10111000003060B90C480088C0F3802038B90A4814
:10112000006820F4805000F58050074908600648A8
:101130000088C0F3003030B103480088C0F30020BD
:1011400008B1FFF7C5FC00BD0C0000203A4800883C
:10115000C0F3402028B138480088C0F3C02000B157
:10116000704735480088C0F3402008B33348006812
:10117000F0B132480068401E3049086008460068F7
:10118000B0B92D48006820F400502B49086008468B
:10119000006820F4806000F5806008600846006800
:1011A00020F4007008600846006820F08070086035
:1011B00021480088C0F3C020E0B321480068B8B9D6
:1011C0001E48006868B11C48006820F4005000F513
:1011D00000501949086019480068401E1749086006
:1011E0000BE01548006820F400501349086004E043
:1011F00013480068401E1249086012480068C8B1D0
:1012000010480068401E0F4908600846006888B909
:101210000948006820F480400749086008460068D3
:1012200020F4805000F5805008600846006820F4E3
:101230000060086000BF93E70C000020140000204D
:101240001C000020180000200A480068C0F340601D
:1012500070B108480068C0F3404030B105480068EC
:1012600020F400300349086002E0032002490870BE
:10127000704700000C0000203C00002000B53C48F6
:10128000006820F4000000F5000039490860394882
:101290000078401C3749087035480068C0F3C040EA
:1012A00088B935480078002805DD33480078401EAD
:1012B0003149087007E02E48006820F4002000F54E
:1012C00000202B4908602A480088C0F3003020B96C
:1012D0002A480068401C29490860FFF737FF244866
:1012E000007800F0010048B921480088C0F3C02010
:1012F00020B91F480088C0F3402050B11C48006846
:10130000800DC1431A48006861F39650184908607F
:1013100015E01B480078401C194908700846007801
:1013200002280CDD12480068800DC1431048006897
:1013300061F396500E4908600020114908700C486E
:10134000007800F0010090B10A4800781E2803D010
:10135000084800783C2801D1FFF776FF054800785F
:101360003C2804D1FFF762FD00200249087000BD4F
:101370000C000020280000202A000020100000207F
:101380003F0000201448006820F08000803012499F
:1013900008600846006820F480700860084600680D
:1013A00020F00100401C08600846006820F00200A0
:1013B00008600846006820F0007000F100700860C6
:1013C0000846006820F4003000F500300860002076
:1013D00002490870704700000C000020280000201F
:1013E00010B5FFF715FC00201849086004214FF0E4
:1013F0009040FFF7A5FB08214FF09040FFF7A0FBBE
:1014000020211348FFF79CFB10211148FFF798FBA0
:101410004FF400614FF09040FFF792FB4FF4804192
:101420004FF09040FFF78CFB02210948FFF788FB43
:101430000020084908600849086008490860084910
:101440000860084908600849087010BD0C000020B9
:1014500000040048100000201400002018000020A4
:101460001C00002038000020290000200A480068E5
:1014700020F4802000F580200749086008460068B5
:1014800020F4004000F5004008600846006820F4A1
:1014900080300860704700000C0000200948006898
:1014A00020F48020074908600846006820F40040C6
:1014B00008600846006820F4803000F5803008603D
:1014C000704700000C00002010B5242223211120B9
:1014D000FFF7B6FD0F48C06820F00100401C0D4921
:1014E000C8600846006820F00800086008460068E8
:1014F00020F0020008600121064800F015F84FF4C2
:10150000FA720121034800F007F80121014800F0B8
:1015100010F810BD00100040C1628262436923F0E0
:1015200001035B1C43617047426861F30002426043
:101530007047026861F3000202607047C162704741
:101540004AF6AA20014908607047000000300040B8
:1015500010B512480088C0F3C03060B14FF0904021
:101560004069C0F3803080F001024FF480414FF0B9
:101570009040FFF7E9FA09480088C0F3C03060B135
:101580004FF090404069C0F3803080F001024FF48A
:1015900080414FF09040FFF7D7FA10BD0C000020BB
:1015A000C0150008000000206400000008010008C9
:1015B00024160008640000206406000024010008CE
:1015C000000000000000000000000000000000001B
:1015D000000000000000000000000000000000000B
:1015E00000000000000000000000000000000000FB
:1015F00000000000000000000000000000000000EB
:1016000000000000000000000000000000000000DA
:1016100000000000000000000000000000000000CA
:0416200000000000C6
:04000005080000CD22
:00000001FF
